:100000000C9434000C944F000C944F000C944F004F
:100010000C944F000C944F000C944F000C944F0024
:100020000C944F000C944F000C944F000C944F0014
:100030000C944F000C944F000C944F000C944F0004
:100040000C944F000C944F000C944F000C944F00F4
:100050000C944F000C944F000C944F000C944F00E4
:100060000C944F000C944F0011241FBECFEFD4E02E
:10007000DEBFCDBF11E0A0E0B1E0E4EDF1E002C0F1
:1000800005900D92A030B107D9F711E0A0E0B1E0E2
:1000900001C01D92A030B107E1F70C94A3000C94AD
:1000A0000000F89414B88FEF85B917B888B926E026
:1000B0002AB98DEF8BB983E190E09093C5008093CE
:1000C000C40088E18093C1002093C2000895982F56
:1000D0008091C00085FFFCCF9093C6000895809169
:1000E000C00087FF03C08091C600F9CF08958091BA
:1000F000C0008823E4F78091C60099270895282F2F
:1001000021502F3F29F080E094EB0197F1F7F8CFD1
:10011000089581E80E94670088E00E94670080914E
:10012000C00086FFFCCF87E290E09093C5008093EB
:10013000C4008AE00E947F0008955A988AE00E94D5
:100140007F005A9A0895CFEFD4E0DEBFCDBFC0E064
:100150000E9451000E949D0080E80E9467000E945A
:10016000890082E80E94670084E80E9467008BE8AB
:100170000E9467008CE00E9467008C2F0E9467003D
:100180008C2F0E9467000E946F008EE80E9467001B
:1001900082E00E9467000E9477000E947700C82FCB
:1001A0000E9477000E9477000E9477000E947700EB
:1001B0008C2F992781FF05C08AE80E94670082E0A2
:1001C00006C082FFE2CF8AE80E94670080E00E94BA
:0401D0006700DBCF1A
:00000001FF
