:100000000C9434000C9451000C9451000C94510049
:100010000C9451000C9451000C9451000C9451001C
:100020000C9451000C9451000C9451000C947B00E2
:100030000C9451000C9451000C9451000C945100FC
:100040000C9451000C9451000C9453000C945100EA
:100050000C9451000C9451000C9451000C945100DC
:100060000C9451000C94510011241FBECFEFD4E02A
:10007000DEBFCDBF11E0A4E0B1E001C01D92A1340C
:10008000B107E1F711E0A0E0B1E0E0E5FBE002C07C
:1000900005900D92A430B107D9F70E94BB030C94D0
:1000A000A6050C9400001F920F920FB60F92112418
:1000B0008F939F93EF93FF939091C60080910701D8
:1000C000882381F080910801E82FF0E0E35FFE4F84
:1000D00090838F5F80930801809108018A3110F02E
:1000E00010920701FF91EF919F918F910F900FBE9A
:1000F0000F901F9018951F920F920FB60F92112418
:100100008F939F938091040190910501892B51F069
:1001100080910401909105010197909305018093CE
:10012000040102C0109206019F918F910F900FBEA3
:100130000F901F901895982F8091C00085FFFCCFDD
:100140009093C600089521E0209306019093050145
:1001500080930401809106018823E1F7089521E04E
:10016000209306019093050180930401BEE8A1E06D
:100170004AC080910701882309F045C040E050E063
:10018000FA01E35FFE4F8081FA01E95DFE4F808353
:100190004F5F5F4F4A31510599F7409109015091E6
:1001A0000A012091330180913401722F60E090E0C8
:1001B000862B972B840F951F90930A01809309013A
:1001C00040910B0150910C01209135018091360135
:1001D000322F20E090E0822B932B840F951F909379
:1001E0000C0180930B018091C00085FFFCCFB09380
:1001F000C6008091C00085FFFCCF1092C60010920F
:100200000801A093070180910601882309F0B1CF6E
:100210000895F89414B88FEF85B917B888B926E017
:100220002AB98DEF8BB9109280008CE08093810009
:1002300088E490E0909389008093880082E0809326
:100240006F0083E190E09093C5008093C40088E93B
:100250008093C1002093C2007894089581E0809338
:10026000060188EC90E09093050180930401809151
:1002700006018823E1F75A9881E08093060184E61D
:1002800090E09093050180930401809106018823FA
:10029000E1F75A9A81E0809306018AE090E090931A
:1002A000050180930401809106018823E1F70895F8
:1002B000982F8C3008F062C08091C00085FFFCCF81
:1002C00081E88093C6008091C00080648093C00064
:1002D0008091C00085FFFCCF9093C6008091C00044
:1002E00086FFFCCFF8949B3019F489E090E034C08D
:1002F0009A3019F483E190E02FC0993019F48DE120
:1003000090E02AC0983019F487E290E025C0973039
:1003100019F48BE390E020C0963019F48FE490E05C
:100320001BC0953019F487E790E016C0943019F49B
:100330008FEE90E011C0933019F48FED91E00CC076
:10034000923019F48FEB93E007C0913019F48FE7E6
:1003500097E002C08FEF9EE09093C5008093C400A9
:10036000789481E08093060184E690E09093050103
:1003700080930401809106018823E1F70895282FD6
:100380008091C00085FFFCCF89E88093C6008091F2
:10039000C00085FFFCCF9093C6008091C00085FF10
:1003A000FCCF2093C6008091C00085FFFCCF7093E6
:1003B000C6008091C00085FFFCCF6093C600089501
:1003C0008091C00085FFFCCF8CE88093C6008091AF
:1003D000C00085FFFCCF1092C6008091C00085FF51
:1003E000FCCF89E08093C6008091C00085FFFCCFE0
:1003F0008CE48093C6008091C00085FFFCCF88E02C
:100400008093C6008091C00085FFFCCF85E4809377
:10041000C6008091C00085FFFCCF88E08093C600B5
:100420008091C00085FFFCCF87E48093C600809157
:10043000C00085FFFCCF88E08093C6008091C0009B
:1004400085FFFCCF85E48093C6008091C00085FFC6
:10045000FCCF88E08093C6008091C00085FFFCCF70
:1004600082E48093C6008091C00085FFFCCF88E0C5
:100470008093C6008091C00085FFFCCF85E4809307
:10048000C6008091C00085FFFCCF88E08093C60045
:100490008091C00085FFFCCF8EE48093C6008091E0
:1004A000C00085FFFCCF88E08093C6008091C0002B
:1004B00085FFFCCF8CE48093C6008091C00085FF4F
:1004C000FCCF88E08093C6008091C00085FFFCCF00
:1004D00081E58093C6008091C00085FFFCCF80E15C
:1004E0008093C6008091C00085FFFCCF8CE880938C
:1004F000C6008091C00085FFFCCF81E08093C600DC
:100500008091C00085FFFCCF82E08093C60080917F
:10051000C00085FFFCCF85E48093C6008091C000B9
:1005200085FFFCCF88E08093C6008091C00085FFE6
:10053000FCCF1092C6008091C00085FFFCCF88E000
:100540008093C6008091C00085FFFCCF8CE880932B
:10055000C6008091C00085FFFCCF82E08093C6007A
:100560008091C00085FFFCCF8EE08093C600809113
:10057000C00085FFFCCF83E48093C6008091C0005B
:1005800085FFFCCF88E18093C6008091C00085FF85
:10059000FCCF87E48093C6008091C00085FFFCCF2C
:1005A00080E18093C6008091C00085FFFCCF83E48A
:1005B0008093C6008091C00085FFFCCF88E18093C6
:1005C000C6008091C00085FFFCCF87E48093C60001
:1005D0008091C00085FFFCCF80E18093C6008091B0
:1005E000C00085FFFCCF83E48093C6008091C000EB
:1005F00085FFFCCF88E18093C6008091C00085FF15
:10060000FCCF87E48093C6008091C00085FFFCCFBB
:1006100080E18093C6008091C00085FFFCCF83E419
:100620008093C6008091C00085FFFCCF88E1809355
:10063000C6008091C00085FFFCCF87E48093C60090
:100640008091C00085FFFCCF80E18093C60080913F
:10065000C00085FFFCCF83E48093C6008091C0007A
:1006600085FFFCCF88E18093C6008091C00085FFA4
:10067000FCCF87E48093C6008091C00085FFFCCF4B
:1006800080E18093C6008091C00085FFFCCF83E4A9
:100690008093C6008091C00085FFFCCF88E18093E5
:1006A000C6008091C00085FFFCCF87E48093C60020
:1006B0008091C00085FFFCCF80E18093C6008091CF
:1006C000C00085FFFCCF83E48093C6008091C0000A
:1006D00085FFFCCF88E18093C6008091C00085FF34
:1006E000FCCF87E48093C6008091C00085FFFCCFDB
:1006F00080E18093C6008091C00085FFFCCF8CE82C
:100700008093C6008091C00085FFFCCF83E080937A
:10071000C6008091C00085FFFCCF83E08093C600B7
:100720008091C00085FFFCCF89E38093C600809153
:10073000C00085FFFCCF80E28093C6008091C0009E
:1007400085FFFCCF81E38093C6008091C00085FFC8
:10075000FCCF80E18093C6008091C00085FFFCCF74
:100760008DE28093C6008091C00085FFFCCF80E1C0
:100770008093C60008951F930E9409010E942E01D4
:100780008091C00085FFFCCF80E88093C60088E0A0
:100790000E9458010E94E0018091C00085FFFCCFBB
:1007A00082E88093C6008091C00085FFFCCF83E87B
:1007B0008093C60010920A011092090181E290E034
:1007C00060E070E80E94BF0104C084E690E00E94EF
:1007D000AF008091090190910A0184369105ACF334
:1007E00080E090E060E070E80E94BF018091C0006E
:1007F00085FFFCCF8BE88093C6008091C00085FF09
:10080000FCCF8AE08093C6008091C00085FFFCCFBA
:1008100083ED8093C6008091C00085FFFCCF86E801
:100820008093C6008091C00085FFFCCF8CE8809348
:10083000C6008091C00085FFFCCF81E08093C60098
:100840008091C00085FFFCCF85E08093C600809139
:10085000C00085FFFCCF89E28093C6008091C00074
:1008600085FFFCCF80E28093C6008091C00085FFA9
:10087000FCCF80E38093C6008091C00085FFFCCF51
:1008800080E28093C6008091C00085FFFCCF88E2A3
:100890008093C6008091C00085FFFCCF80E28093EA
:1008A000C6008091C00085FFFCCF89E28093C6001E
:1008B0008091C00085FFFCCF80E28093C6008091CC
:1008C000C00085FFFCCF86E38093C6008091C00006
:1008D00085FFFCCF80E28093C6008091C00085FF39
:1008E000FCCF8DE88093C6008091C00085FFFCCFCF
:1008F00011E01093C60080E090E060E070E80E9494
:10090000BF011093060184EF91E09093050180935D
:100910000401809106018823E1F78091C00085FFE2
:10092000FCCF8DE88093C6008091C00085FFFCCF8E
:1009300083E08093C60081E08093060188EE93E017
:100940009093050180930401809106018823E1F7CB
:10095000FFCF0E9405059B01AC0130702A563F4F26
:10096000C9010895A0E0B0E0E8EBF4E00C9455056F
:10097000EC01A880B980CA80DB80A114B104C10455
:10098000D10441F484E2A82E89EDB82E8BE5C82E5F
:1009900087E0D82EC601B5012DE133EF41E050E0EC
:1009A0000E94320527EA31E440E050E00E9413053E
:1009B0007B018C01C601B5012DE133EF41E050E030
:1009C0000E943205CA01B9012CEE34EF4FEF5FEF00
:1009D0000E9413056E0D7F1D801F911F97FF04C09D
:1009E0006150704080409048688379838A839B83FC
:1009F0009B01AC015F77B901CA01CDB7DEB7EAE070
:100A00000C9471050E94B204089580E091E00E9468
:100A1000B204089560930001709301018093020174
:100A2000909303010895629FD001739FF001829F0C
:100A3000E00DF11D649FE00DF11D929FF00D839F6D
:100A4000F00D749FF00D659FF00D9927729FB00D0A
:100A5000E11DF91F639FB00DE11DF91FBD01CF011D
:100A60001124089597FB092E05260ED057FD04D0BA
:100A70004BD00AD0001C38F4509540953095219504
:100A80003F4F4F4F5F4F0895F6F7909580957095C3
:100A900061957F4F8F4F9F4F08952F923F924F92B6
:100AA0005F926F927F928F929F92AF92BF92CF92FE
:100AB000DF92EF92FF920F931F93CF93DF93CDB707
:100AC000DEB7CA1BDB0B0FB6F894DEBF0FBECDBF7F
:100AD00009942A88398848885F846E847D848C8450
:100AE0009B84AA84B984C884DF80EE80FD800C8159
:100AF0001B81AA81B981CE0FD11D0FB6F894DEBF3C
:100B00000FBECDBFED010895A1E21A2EAA1BBB1B9B
:100B1000FD010DC0AA1FBB1FEE1FFF1FA217B307C9
:100B2000E407F50720F0A21BB30BE40BF50B661FDF
:100B3000771F881F991F1A9469F7609570958095A3
:100B400090959B01AC01BD01CF010895F894FFCFB2
:040B500001000000A0
:00000001FF
