:100000000C9434000C944F000C944F000C944F004F
:100010000C944F000C944F000C944F000C944F0024
:100020000C944F000C944F000C944F000C94110250
:100030000C944F000C944F000C944F000C944F0004
:100040000C944F000C944F000C94E9010C944F0059
:100050000C944F000C944F000C944F000C944F00E4
:100060000C944F000C944F0011241FBECFEFD4E02E
:10007000DEBFCDBF11E0A0E0B1E0E2E7F8E002C0F2
:1000800005900D92A430B107D9F711E0A4E0B1E0DA
:1000900001C01D92A134B107E1F70C9439020C9410
:1000A0000000F89414B88FEF85B917B888B926E026
:1000B0002AB98DEF8BB9109280008CE0809381007B
:1000C00088E490E0909389008093880082E0809398
:1000D0006F0083E190E09093C5008093C40088E9AD
:1000E0008093C1002093C20078940895982F809146
:1000F000C00085FFFCCF9093C60008958CE80E9455
:10010000760080E00E94760089E00E9476008CE410
:100110000E94760088E00E94760085E40E947600C6
:1001200088E00E94760087E40E94760088E00E94C2
:10013000760085E40E94760088E00E94760082E4E2
:100140000E94760088E00E94760085E40E94760096
:1001500088E00E9476008EE40E94760088E00E948B
:1001600076008CE40E94760088E00E94760081E5AB
:100170000E94760080E10E9476008CE80E94760062
:1001800081E00E94760082E00E94760085E40E9471
:10019000760088E00E94760080E00E94760088E089
:1001A0000E9476008CE80E94760082E00E94760031
:1001B00082E00E94760083E40E94760088E10E943B
:1001C000760087E40E94760080E10E9476008CE849
:1001D0000E94760083E00E94760083E00E94760011
:1001E00089E30E94760080E20E94760081E30E940B
:1001F000760080E10E9476008DE20E94760080E128
:100200000E947600089521E020930A0190930C014A
:1002100080930B0180910A01882309F442C08091E8
:1002200009018823B9F7ADE0B1E0E7E2F1E099E137
:100230008D918193915097FFFBCF80913301992746
:10024000382F2227809134019927282B392B809130
:10025000060190910701820F931F909307018093ED
:100260000601809135019927382F22278091360188
:100270009927282B392B8091040190910501820F39
:10028000931F90930501809304018EE80E947600ED
:1002900080E00E9476001092080181E080930901BD
:1002A000B9CF0895EF92FF920F931F938C017B01BA
:1002B00089E80E947600812F992787FD9A950E94F0
:1002C0007600802F0E9476008F2D992787FD9A95C2
:1002D0000E9476008E2D0E9476001F910F91FF9054
:1002E000EF9008959C0181E080930A0130930C0106
:1002F00020930B0180910A018823E1F70895CF93A1
:10030000C82F8C3008F054C081E80E94760080919C
:10031000C00080648093C0008C2F0E947600809182
:10032000C00086FFFCCFF894CB3019F489E090E050
:1003300036C0CA3019F483E190E031C0C93019F4F5
:100340008DE190E02CC0C83019F487E290E027C01E
:10035000C73019F48BE390E022C0C63019F48FE463
:1003600090E01DC0C53019F487E790E018C0C43094
:1003700019F48FEE90E013C0C33019F48FED91E0C3
:100380000EC0C23019F48FEB93E009C0C13019F4EC
:100390008FE797E004C0CC2331F48FEF9EE0909379
:1003A000C5008093C400789484E690E00E947201B6
:1003B000CF91089588EC90E00E9472015A9884E6EB
:1003C00090E00E9472015A9A8AE090E00E947201C5
:1003D00008951F920F920FB60F9211248F939F933F
:1003E000EF93FF939091C60080910901882381F0DB
:1003F00080910801E82FFF27E35FFE4F90838F5F16
:1004000080930801809108018A3110F0109209014F
:10041000FF91EF919F918F910F900FBE0F901F90C2
:1004200018951F920F920FB60F9211248F939F93DE
:1004300080910B0190910C01892B51F080910B015F
:1004400090910C01019790930C0180930B0102C0D5
:1004500010920A019F918F910F900FBE0F901F90E5
:1004600018950E948903DC01CB0190708A569F4F3A
:100470000895CFEFD4E0DEBFCDBFC0E000E010E0D4
:10048000E1E0FE2EEC2E0E9451000E94DA0180E88D
:100490000E94760088E00E947F010E947E0082E830
:1004A0000E94760084E80E9476008091320180FDEF
:1004B0001AC08C2FCF5F87FF05C08BE80E947600A3
:1004C00080E004C08BE80E94760082E00E94760003
:1004D00080E00E94760080E00E94760084E090E058
:1004E0000E940301E2CF8BE80E94760081E10E9426
:1004F000760080E00E94760080E00E9476008DE821
:100500000E94760080E00E9476008CED95E062C04B
:10051000EE2049F1FF2059F08091040190910501EE
:10052000081719070CF4E22E61E070E00DC080910D
:10053000040190910501909581959F4F0817190727
:100540000CF4EF2C6FEF7FEF88EC90E00E945201EB
:100550008AE80E94760081E00E9476008DE80E9481
:10056000760081E033C080912701992783709070D5
:10057000892B11F18091270181FF02C0FE2C02C05E
:1005800071E0F72E61E0E62E109205011092040151
:100590000E9431028C0160E070E888E39FEF0E94C6
:1005A00052018DE80E94760082E00E94760084E687
:1005B00090E00E9403010CC060E070E88CE291E0E2
:1005C0000E9452018AE80E9476008E2D0E947600D9
:1005D00081E090E00E9403018091320199278F70A1
:1005E0009070892B89F480912901882369F4809186
:1005F0002A01882349F480912B01882329F4209132
:100600002C01222309F484CF60E070E880E090E0C0
:100610000E94520184EF91E00E9472018DE80E94D5
:10062000760083E00E94760088EE93E00E947201DB
:100630008BE80E94760080E00E94760080E00E94B5
:10064000760080E00E94760085E80E947600FFCF69
:10065000AF92BF92CF92DF92EF92FF920F931F93D0
:10066000CF93DF93EC01E880F9800A811B81C801F8
:10067000B7012DE133EF41E050E00E94170459012A
:100680006A01C801B7012DE133EF41E050E00E945B
:100690001704DC01CB01BC01CD0127EA31E440E0C5
:1006A00050E00E94F8037B018C01C601B50124E1F2
:1006B0003BE040E050E00E94F803DC01CB01E81A87
:1006C000F90A0A0B1B0B1E141F041006110644F036
:1006D0002FEF3FEF4FEF5FE7E20EF31E041F151FF2
:1006E000E882F9820A831B834FEF5FEF6FEF7FE7AA
:1006F000E422F52206231723C801B701DF91CF9129
:100700001F910F91FF90EF90DF90CF90BF90AF902F
:100710000895AF92BF92CF92DF92EF92FF920F9324
:100720001F93E0900001F0900101009102011091EF
:100730000301C801B7012DE133EF41E050E00E9411
:10074000170459016A01C801B7012DE133EF41E0F7
:1007500050E00E941704DC01CB01BC01CD0127EA67
:1007600031E440E050E00E94F8037B018C01C601B7
:10077000B50124E13BE040E050E00E94F803DC01D9
:10078000CB01E81AF90A0A0B1B0B1E141F041006F2
:10079000110644F02FEF3FEF4FEF5FE7E20EF31E3D
:1007A000041F151FE0920001F09201010093020165
:1007B000109303014FEF5FEF6FEF7FE7E422F52225
:1007C00006231723C801B7011F910F91FF90EF90E7
:1007D000DF90CF90BF90AF900895DC01CB01809364
:1007E000000190930101A0930201B09303010895C9
:1007F000629FD001739FF001829FE00DF11D649F05
:10080000E00DF11D929FF00D839FF00D749FF00D90
:10081000659FF00D9927729FB00DE11DF91F639F31
:10082000B00DE11DF91FBD01CF0111240895A1E212
:100830001A2EAA1BBB1BFD010DC0AA1FBB1FEE1F5A
:10084000FF1FA217B307E407F50720F0A21BB30BA5
:10085000E40BF50B661F771F881F991F1A9469F721
:1008600060957095809590959B01AC01BD01CF017D
:020870000895E9
:040872000100000081
:00000001FF
