:100000000C9434000C944F000C944F000C944F004F
:100010000C944F000C944F000C944F000C944F0024
:100020000C944F000C944F000C944F000C942C0433
:100030000C944F000C944F000C944F000C944F0004
:100040000C944F000C944F000C9404040C944F003B
:100050000C944F000C944F000C944F000C944F00E4
:100060000C944F000C944F0011241FBECFEFD4E02E
:10007000DEBFCDBF11E0A0E0B1E0E8E9F8E002C0EA
:1000800005900D92A030B107D9F711E0A0E0B1E0E2
:1000900001C01D92AD33B107E1F70C94EA010C9455
:1000A0000000F89414B88FEF85B917B888B926E026
:1000B0002AB98DEF8BB9109280008CE0809381007B
:1000C00088E490E0909389008093880082E0809398
:1000D0006F0083E190E09093C5008093C40088E9AD
:1000E0008093C1002093C20078940895982F809146
:1000F000C00085FFFCCF9093C60008958CE80E9455
:10010000760080E00E94760081E00E9476008CE319
:100110000E94760080E10E94760008951F93182FB8
:100120008BE80E947600812F8F720E94760080E01B
:100130000E94760014FF02C08FEF01C080E00E9491
:1001400076001F9108959C0181E080930601309311
:10015000080120930701809106018823E1F70895A3
:100160008BE80E94760080E00E94760080E00E948A
:10017000760080E00E94760084EF91E00E94A30068
:100180008DE80E94760080E00E94760088EE93E081
:100190000E94A3000895CF93C82F8C3008F054C05C
:1001A00081E80E9476008091C00080648093C00046
:1001B0008C2F0E9476008091C00086FFFCCFF894BF
:1001C000CB3019F489E090E036C0CA3019F483E1ED
:1001D00090E031C0C93019F48DE190E02CC0C830F6
:1001E00019F487E290E027C0C73019F48BE390E060
:1001F00022C0C63019F48FE490E01DC0C53019F458
:1002000087E790E018C0C43019F48FEE90E013C077
:10021000C33019F48FED91E00EC0C23019F48FEBAA
:1002200093E009C0C13019F48FE797E004C0CC23F4
:1002300031F48FEF9EE09093C5008093C4007894D2
:1002400084E690E00E94A300CF91089588EC90E0AE
:100250000E94A3005A9884E690E00E94A3005A9A54
:100260008AE090E00E94A300089521E02093060117
:10027000909308018093070180910601882309F477
:1002800042C0809105018823B9F7A9E0B1E0E3E21B
:10029000F1E099E18D918193915097FFFBCF80918F
:1002A0002F019927382F2227809130019927282B59
:1002B000392B8091020190910301820F931F90933B
:1002C000030180930201809131019927382F222761
:1002D000809132019927282B392B80910001909130
:1002E0000101820F931F90930101809300018EE81A
:1002F0000E94760080E00E9476001092040181E066
:1003000080930501B9CF08950F931F93182F062FDF
:100310008CE80E9476008FE00E94760081E00E94C7
:100320007600812F0E947600802F0E9476008DE853
:100330000E9476008FE00E94760084E1089FC00151
:1003400011240E9435011F910F910895EF92FF92A1
:100350000F931F938C017B0189E80E947600812F07
:10036000992787FD9A950E947600802F0E9476003B
:100370008F2D992787FD9A950E9476008E2D0E94D9
:1003800076001F910F91FF90EF900895FF920F93C9
:100390001F93CF93DF938C0163E0F62ECCE0D0E087
:1003A000C8010C2E02C0969587950A94E2F78F70CB
:1003B00060E1885B0E948401FA942497F7FEF0CFF5
:1003C00088EE93E00E943501DF91CF911F910F914C
:1003D000FF900895CFEFD4E0DEBFCDBFC0E00E9414
:1003E00051000E94260180E80E94760088E00E9469
:1003F000CB000E947E0082E80E94760084E80E9482
:1004000076000E94B00000E010E08C2F0E94CB002C
:1004100082E80E94760084E80E9476008C2F0E9479
:100420008E0060E2802F860F0E948401CF5F0C5FF8
:100430001F4FC93050F30E94B000C1E0C03409F42E
:10044000C0E38BE80E9476008C2F0E94760080E04B
:100450000E94760080E00E9476008EEE92E00E947C
:10046000A300CC0FC13450F3C0E08BE80E947600AB
:1004700080E00E94760080E00E9476008C2F0E942F
:1004800076008AE090E00E94A300CF5FCF3F69F73B
:10049000C0E08BE80E94760080E00E9476008C2FFE
:1004A0000E9476008FEF0E9476008AE090E00E9422
:1004B000A300CF5FCF3F69F70E94B000CFE16CE0AF
:1004C0008C2F0E948401CF5FC7FFF9CF0E94B0003C
:1004D000C1E08AE80E9476008C2F0E9476008CEDA5
:1004E00095E00E9435018AE80E94760080E00E9433
:1004F00076008EEE92E00E943501CC0FC83048F3B2
:100500000E94B000109203011092020160E070E8B6
:1005100086E990E00E94A60180910201909103017A
:10052000843691052CF481E090E00E943501F4CFEF
:1005300060E070E880E090E00E94A6018EEE92E01C
:100540000E94350160E070E88AE69FEF0E94A601F4
:100550008091020190910301181619062CF481E094
:1005600090E00E943501F4CF60E070E880E090E018
:100570000E94A6018EEE92E00E94350110920101C8
:100580001092000161E070E086E990E00E94A6010F
:100590008091000190910101853691052CF481E054
:1005A00090E00E943501F4CF60E070E880E090E0D8
:1005B0000E94A6018EEE92E00E9435016FEF7FEF60
:1005C00086E990E00E94A6018091000190910101CE
:1005D000181619062CF481E090E00E943501F4CF42
:1005E00060E070E880E090E00E94A6010E94B00008
:1005F00086E80E94760080E197E20E94350182E859
:100600000E94760084E80E9476000E94B00087E88D
:100610000E94760080E197E20E94350182E80E9404
:10062000760084E80E9476000E94B00085E80E946F
:10063000760080ED97E00E9435010E94260180E857
:100640000E94760082E80E94760084E80E9476008C
:100650000E94B00088E80E94760080E197E20E9444
:10066000350182E80E94760084E80E9476000E94AC
:10067000B00081E00E948E008091330199270E9492
:10068000C60182E00E948E00809134019927382FA4
:100690002227809135019927822B932B0E94C60136
:1006A00083E00E948E00809136019927382F2227FF
:1006B000809137019927822B932B0E94C60184E0F9
:1006C0000E948E008091380199270E94C60185E022
:1006D0000E948E00809139019927382F222780911E
:1006E0003A019927822B932B0E94C60186E00E9433
:1006F0008E0080913B019927382F222780913C0161
:100700009927822B932B0E94C6010E94B0008091F2
:100710002A01882319F068E186E56FC080912B01DA
:10072000882321F480912C01882319F068E184E565
:1007300064C080912D018F3F19F068E183E55DC0B1
:1007400080912901882319F068E181E556C08091E4
:100750002E0183FF03C068E18FE44FC080912E011A
:1007600082FF03C068E18DE448C080912E0181FFC3
:1007700003C068E18CE441C080912E0180FF03C07A
:1007800068E18AE43AC08091230199278C719070C6
:10079000892B19F068E188E430C080912501882315
:1007A00019F068E187E429C080912601882319F0B7
:1007B00068E185E422C080912701882319F068E16F
:1007C00083E41BC080912801882319F068E181E44B
:1007D00014C080912401882319F068E180E40DC0E1
:1007E0008091230181FF03C068E18EE306C0809100
:1007F000230180FF04C068E18CE30E94840181E052
:1008000090E00E94350183CF1F920F920FB60F9296
:1008100011248F939F93EF93FF939091C600809143
:100820000501882381F080910401E82FFF27E75F0D
:10083000FE4F90838F5F80930401809104018A3181
:1008400010F010920501FF91EF919F918F910F9001
:100850000FBE0F901F9018951F920F920FB60F9218
:1008600011248F939F938091070190910801892B08
:1008700051F0809107019091080101979093080130
:100880008093070102C0109206019F918F910F90F3
:080890000FBE0F901F90189598
:00000001FF
